{
  "_format": "hh-sol-artifact-1",
  "contractName": "Helper",
  "sourceName": "contracts/main.sol",
  "abi": [
    {
      "inputs": [],
      "stateMutability": "nonpayable",
      "type": "constructor"
    },
    {
      "anonymous": false,
      "inputs": [
        {
          "indexed": false,
          "internalType": "string",
          "name": "filmname",
          "type": "string"
        }
      ],
      "name": "Mint",
      "type": "event"
    },
    {
      "anonymous": false,
      "inputs": [
        {
          "indexed": true,
          "internalType": "address",
          "name": "previousOwner",
          "type": "address"
        },
        {
          "indexed": true,
          "internalType": "address",
          "name": "newOwner",
          "type": "address"
        }
      ],
      "name": "OwnershipTransferred",
      "type": "event"
    },
    {
      "inputs": [],
      "name": "admin",
      "outputs": [
        {
          "internalType": "address payable",
          "name": "",
          "type": "address"
        }
      ],
      "stateMutability": "view",
      "type": "function"
    },
    {
      "inputs": [
        {
          "internalType": "string",
          "name": "_filmName",
          "type": "string"
        },
        {
          "internalType": "uint32",
          "name": "_validDate",
          "type": "uint32"
        },
        {
          "internalType": "string",
          "name": "_uri",
          "type": "string"
        },
        {
          "internalType": "uint256",
          "name": "_ticketPrice",
          "type": "uint256"
        }
      ],
      "name": "createNewTicket",
      "outputs": [],
      "stateMutability": "nonpayable",
      "type": "function"
    },
    {
      "inputs": [],
      "name": "getBalance",
      "outputs": [
        {
          "internalType": "uint256",
          "name": "",
          "type": "uint256"
        }
      ],
      "stateMutability": "view",
      "type": "function"
    },
    {
      "inputs": [
        {
          "internalType": "string",
          "name": "_filmName",
          "type": "string"
        }
      ],
      "name": "getTicket",
      "outputs": [
        {
          "internalType": "contract Ticket",
          "name": "",
          "type": "address"
        }
      ],
      "stateMutability": "view",
      "type": "function"
    },
    {
      "inputs": [
        {
          "internalType": "string",
          "name": "_filmName",
          "type": "string"
        }
      ],
      "name": "mint",
      "outputs": [],
      "stateMutability": "payable",
      "type": "function"
    },
    {
      "inputs": [],
      "name": "owner",
      "outputs": [
        {
          "internalType": "address",
          "name": "",
          "type": "address"
        }
      ],
      "stateMutability": "view",
      "type": "function"
    },
    {
      "inputs": [],
      "name": "renounceOwnership",
      "outputs": [],
      "stateMutability": "nonpayable",
      "type": "function"
    },
    {
      "inputs": [
        {
          "internalType": "address",
          "name": "newOwner",
          "type": "address"
        }
      ],
      "name": "transferOwnership",
      "outputs": [],
      "stateMutability": "nonpayable",
      "type": "function"
    },
    {
      "inputs": [
        {
          "internalType": "string",
          "name": "_filmName",
          "type": "string"
        },
        {
          "internalType": "uint256",
          "name": "_id",
          "type": "uint256"
        }
      ],
      "name": "useTicket",
      "outputs": [],
      "stateMutability": "nonpayable",
      "type": "function"
    },
    {
      "inputs": [],
      "name": "withdraw",
      "outputs": [],
      "stateMutability": "nonpayable",
      "type": "function"
    }
  ],
  "bytecode": "0x608060405234801561001057600080fd5b5061002d61002261007360201b60201c565b61007b60201b60201c565b33600160006101000a81548173ffffffffffffffffffffffffffffffffffffffff021916908373ffffffffffffffffffffffffffffffffffffffff16021790555061013f565b600033905090565b60008060009054906101000a900473ffffffffffffffffffffffffffffffffffffffff169050816000806101000a81548173ffffffffffffffffffffffffffffffffffffffff021916908373ffffffffffffffffffffffffffffffffffffffff1602179055508173ffffffffffffffffffffffffffffffffffffffff168173ffffffffffffffffffffffffffffffffffffffff167f8be0079c531659141344cd1fd0a4f28419497f9722a3daafe3b4186f6b6457e060405160405180910390a35050565b6145138061014e6000396000f3fe6080604052600436106200009e5760003560e01c806385a736f9116200006157806385a736f914620001795780638da5cb5b14620001a7578063d85d3d2714620001d7578063f2fde38b14620001f7578063f851a4401462000225576200009e565b806312065fe014620000a35780633ccfd60b14620000d3578063423c6cdf14620000ed57806351f7b443146200011b578063715018a6146200015f575b600080fd5b348015620000b057600080fd5b50620000bb62000255565b604051620000ca9190620008e1565b60405180910390f35b348015620000e057600080fd5b50620000eb6200025d565b005b348015620000fa57600080fd5b5062000119600480360381019062000113919062000ae6565b620002d3565b005b3480156200012857600080fd5b5062000147600480360381019062000141919062000b96565b620003d1565b60405162000156919062000c72565b60405180910390f35b3480156200016c57600080fd5b50620001776200041b565b005b3480156200018657600080fd5b50620001a560048036038101906200019f919062000c8f565b62000433565b005b348015620001b457600080fd5b50620001bf620004e6565b604051620001ce919062000d1a565b60405180910390f35b620001f56004803603810190620001ef919062000b96565b6200050f565b005b3480156200020457600080fd5b506200022360048036038101906200021d919062000d68565b620006b7565b005b3480156200023257600080fd5b506200023d62000741565b6040516200024c919062000dbf565b60405180910390f35b600047905090565b6200026762000767565b600160009054906101000a900473ffffffffffffffffffffffffffffffffffffffff1673ffffffffffffffffffffffffffffffffffffffff166108fc479081150290604051600060405180830381858888f19350505050158015620002d0573d6000803e3d6000fd5b50565b620002dd62000767565b428363ffffffff161162000328576040517f08c379a00000000000000000000000000000000000000000000000000000000081526004016200031f9062000e3d565b60405180910390fd5b6000848484846040516200033c90620008b8565b6200034b949392919062000ef2565b604051809103906000f08015801562000368573d6000803e3d6000fd5b509050806002866040516200037e919062000f8f565b908152602001604051809103902060006101000a81548173ffffffffffffffffffffffffffffffffffffffff021916908373ffffffffffffffffffffffffffffffffffffffff1602179055505050505050565b6000600282604051620003e5919062000f8f565b908152602001604051809103902060009054906101000a900473ffffffffffffffffffffffffffffffffffffffff169050919050565b6200042562000767565b620004316000620007ec565b565b60028260405162000445919062000f8f565b908152602001604051809103902060009054906101000a900473ffffffffffffffffffffffffffffffffffffffff1673ffffffffffffffffffffffffffffffffffffffff1663ab5b4456826040518263ffffffff1660e01b8152600401620004ae9190620008e1565b600060405180830381600087803b158015620004c957600080fd5b505af1158015620004de573d6000803e3d6000fd5b505050505050565b60008060009054906101000a900473ffffffffffffffffffffffffffffffffffffffff16905090565b600060028260405162000523919062000f8f565b908152602001604051809103902060009054906101000a900473ffffffffffffffffffffffffffffffffffffffff1690508073ffffffffffffffffffffffffffffffffffffffff166387bb7ae06040518163ffffffff1660e01b8152600401602060405180830381865afa158015620005a0573d6000803e3d6000fd5b505050506040513d601f19601f82011682018060405250810190620005c6919062000fbf565b3410156200060b576040517f08c379a0000000000000000000000000000000000000000000000000000000008152600401620006029062001041565b60405180910390fd5b8073ffffffffffffffffffffffffffffffffffffffff166340d097c3336040518263ffffffff1660e01b815260040162000646919062000d1a565b600060405180830381600087803b1580156200066157600080fd5b505af115801562000676573d6000803e3d6000fd5b505050507fc5e1d731c47dbd6a8c38e6ee9137792904eae9d20174034d1dc9a5781a0f855b82604051620006ab919062001063565b60405180910390a15050565b620006c162000767565b600073ffffffffffffffffffffffffffffffffffffffff168173ffffffffffffffffffffffffffffffffffffffff160362000733576040517f08c379a00000000000000000000000000000000000000000000000000000000081526004016200072a90620010fd565b60405180910390fd5b6200073e81620007ec565b50565b600160009054906101000a900473ffffffffffffffffffffffffffffffffffffffff1681565b62000771620008b0565b73ffffffffffffffffffffffffffffffffffffffff1662000791620004e6565b73ffffffffffffffffffffffffffffffffffffffff1614620007ea576040517f08c379a0000000000000000000000000000000000000000000000000000000008152600401620007e1906200116f565b60405180910390fd5b565b60008060009054906101000a900473ffffffffffffffffffffffffffffffffffffffff169050816000806101000a81548173ffffffffffffffffffffffffffffffffffffffff021916908373ffffffffffffffffffffffffffffffffffffffff1602179055508173ffffffffffffffffffffffffffffffffffffffff168173ffffffffffffffffffffffffffffffffffffffff167f8be0079c531659141344cd1fd0a4f28419497f9722a3daafe3b4186f6b6457e060405160405180910390a35050565b600033905090565b61334c806200119283390190565b6000819050919050565b620008db81620008c6565b82525050565b6000602082019050620008f86000830184620008d0565b92915050565b6000604051905090565b600080fd5b600080fd5b600080fd5b600080fd5b6000601f19601f8301169050919050565b7f4e487b7100000000000000000000000000000000000000000000000000000000600052604160045260246000fd5b62000967826200091c565b810181811067ffffffffffffffff821117156200098957620009886200092d565b5b80604052505050565b60006200099e620008fe565b9050620009ac82826200095c565b919050565b600067ffffffffffffffff821115620009cf57620009ce6200092d565b5b620009da826200091c565b9050602081019050919050565b82818337600083830152505050565b600062000a0d62000a0784620009b1565b62000992565b90508281526020810184848401111562000a2c5762000a2b62000917565b5b62000a39848285620009e7565b509392505050565b600082601f83011262000a595762000a5862000912565b5b813562000a6b848260208601620009f6565b91505092915050565b600063ffffffff82169050919050565b62000a8f8162000a74565b811462000a9b57600080fd5b50565b60008135905062000aaf8162000a84565b92915050565b62000ac081620008c6565b811462000acc57600080fd5b50565b60008135905062000ae08162000ab5565b92915050565b6000806000806080858703121562000b035762000b0262000908565b5b600085013567ffffffffffffffff81111562000b245762000b236200090d565b5b62000b328782880162000a41565b945050602062000b458782880162000a9e565b935050604085013567ffffffffffffffff81111562000b695762000b686200090d565b5b62000b778782880162000a41565b925050606062000b8a8782880162000acf565b91505092959194509250565b60006020828403121562000baf5762000bae62000908565b5b600082013567ffffffffffffffff81111562000bd05762000bcf6200090d565b5b62000bde8482850162000a41565b91505092915050565b600073ffffffffffffffffffffffffffffffffffffffff82169050919050565b6000819050919050565b600062000c3262000c2c62000c268462000be7565b62000c07565b62000be7565b9050919050565b600062000c468262000c11565b9050919050565b600062000c5a8262000c39565b9050919050565b62000c6c8162000c4d565b82525050565b600060208201905062000c89600083018462000c61565b92915050565b6000806040838503121562000ca95762000ca862000908565b5b600083013567ffffffffffffffff81111562000cca5762000cc96200090d565b5b62000cd88582860162000a41565b925050602062000ceb8582860162000acf565b9150509250929050565b600062000d028262000be7565b9050919050565b62000d148162000cf5565b82525050565b600060208201905062000d31600083018462000d09565b92915050565b62000d428162000cf5565b811462000d4e57600080fd5b50565b60008135905062000d628162000d37565b92915050565b60006020828403121562000d815762000d8062000908565b5b600062000d918482850162000d51565b91505092915050565b600062000da78262000be7565b9050919050565b62000db98162000d9a565b82525050565b600060208201905062000dd6600083018462000dae565b92915050565b600082825260208201905092915050565b7f446174652069732077726f6e6700000000000000000000000000000000000000600082015250565b600062000e25600d8362000ddc565b915062000e328262000ded565b602082019050919050565b6000602082019050818103600083015262000e588162000e16565b9050919050565b600081519050919050565b60005b8381101562000e8a57808201518184015260208101905062000e6d565b8381111562000e9a576000848401525b50505050565b600062000ead8262000e5f565b62000eb9818562000ddc565b935062000ecb81856020860162000e6a565b62000ed6816200091c565b840191505092915050565b62000eec8162000a74565b82525050565b6000608082019050818103600083015262000f0e818762000ea0565b905062000f1f602083018662000ee1565b818103604083015262000f33818562000ea0565b905062000f446060830184620008d0565b95945050505050565b600081905092915050565b600062000f658262000e5f565b62000f71818562000f4d565b935062000f8381856020860162000e6a565b80840191505092915050565b600062000f9d828462000f58565b915081905092915050565b60008151905062000fb98162000ab5565b92915050565b60006020828403121562000fd85762000fd762000908565b5b600062000fe88482850162000fa8565b91505092915050565b7f4574686572206973206e6f7420656e6f75676874000000000000000000000000600082015250565b60006200102960148362000ddc565b9150620010368262000ff1565b602082019050919050565b600060208201905081810360008301526200105c816200101a565b9050919050565b600060208201905081810360008301526200107f818462000ea0565b905092915050565b7f4f776e61626c653a206e6577206f776e657220697320746865207a65726f206160008201527f6464726573730000000000000000000000000000000000000000000000000000602082015250565b6000620010e560268362000ddc565b9150620010f28262001087565b604082019050919050565b600060208201905081810360008301526200111881620010d6565b9050919050565b7f4f776e61626c653a2063616c6c6572206973206e6f7420746865206f776e6572600082015250565b60006200115760208362000ddc565b915062001164826200111f565b602082019050919050565b600060208201905081810360008301526200118a8162001148565b905091905056fe60806040526000600b553480156200001657600080fd5b506040516200334c3803806200334c83398181016040528101906200003c9190620004f7565b6040518060400160405280601681526020017f50617269627563696e657665727365207469636b6574000000000000000000008152506040518060400160405280600481526020017f50524254000000000000000000000000000000000000000000000000000000008152508160009080519060200190620000c09291906200022e565b508060019080519060200190620000d99291906200022e565b505050620000fc620000f06200016060201b60201c565b6200016860201b60201c565b8360079080519060200190620001149291906200022e565b5082600860006101000a81548163ffffffff021916908363ffffffff16021790555081600a90805190602001906200014e9291906200022e565b5080600981905550505050506200060b565b600033905090565b6000600660009054906101000a900473ffffffffffffffffffffffffffffffffffffffff16905081600660006101000a81548173ffffffffffffffffffffffffffffffffffffffff021916908373ffffffffffffffffffffffffffffffffffffffff1602179055508173ffffffffffffffffffffffffffffffffffffffff168173ffffffffffffffffffffffffffffffffffffffff167f8be0079c531659141344cd1fd0a4f28419497f9722a3daafe3b4186f6b6457e060405160405180910390a35050565b8280546200023c90620005d6565b90600052602060002090601f016020900481019282620002605760008555620002ac565b82601f106200027b57805160ff1916838001178555620002ac565b82800160010185558215620002ac579182015b82811115620002ab5782518255916020019190600101906200028e565b5b509050620002bb9190620002bf565b5090565b5b80821115620002da576000816000905550600101620002c0565b5090565b6000604051905090565b600080fd5b600080fd5b600080fd5b600080fd5b6000601f19601f8301169050919050565b7f4e487b7100000000000000000000000000000000000000000000000000000000600052604160045260246000fd5b6200034782620002fc565b810181811067ffffffffffffffff821117156200036957620003686200030d565b5b80604052505050565b60006200037e620002de565b90506200038c82826200033c565b919050565b600067ffffffffffffffff821115620003af57620003ae6200030d565b5b620003ba82620002fc565b9050602081019050919050565b60005b83811015620003e7578082015181840152602081019050620003ca565b83811115620003f7576000848401525b50505050565b6000620004146200040e8462000391565b62000372565b905082815260208101848484011115620004335762000432620002f7565b5b62000440848285620003c7565b509392505050565b600082601f83011262000460576200045f620002f2565b5b815162000472848260208601620003fd565b91505092915050565b600063ffffffff82169050919050565b62000496816200047b565b8114620004a257600080fd5b50565b600081519050620004b6816200048b565b92915050565b6000819050919050565b620004d181620004bc565b8114620004dd57600080fd5b50565b600081519050620004f181620004c6565b92915050565b60008060008060808587031215620005145762000513620002e8565b5b600085015167ffffffffffffffff811115620005355762000534620002ed565b5b620005438782880162000448565b94505060206200055687828801620004a5565b935050604085015167ffffffffffffffff8111156200057a5762000579620002ed565b5b620005888782880162000448565b92505060606200059b87828801620004e0565b91505092959194509250565b7f4e487b7100000000000000000000000000000000000000000000000000000000600052602260045260246000fd5b60006002820490506001821680620005ef57607f821691505b602082108103620006055762000604620005a7565b5b50919050565b612d31806200061b6000396000f3fe608060405234801561001057600080fd5b50600436106101735760003560e01c80636c0360eb116100de578063a22cb46511610097578063b88d4fde11610071578063b88d4fde14610428578063c87b56dd14610444578063e985e9c514610474578063f2fde38b146104a457610173565b8063a22cb465146103d2578063a81af5f7146103ee578063ab5b44561461040c57610173565b80636c0360eb1461032057806370a082311461033e578063715018a61461036e57806387bb7ae0146103785780638da5cb5b1461039657806395d89b41146103b457610173565b806323b872dd1161013057806323b872dd1461024e578063336ccba51461026a57806340d097c31461029a57806342842e0e146102b65780636352211e146102d25780636add29221461030257610173565b806301ffc9a71461017857806306fdde03146101a8578063081812fc146101c6578063095ea7b3146101f65780631209b1f61461021257806317d70f7c14610230575b600080fd5b610192600480360381019061018d9190611d29565b6104c0565b60405161019f9190611d71565b60405180910390f35b6101b06105a2565b6040516101bd9190611e25565b60405180910390f35b6101e060048036038101906101db9190611e7d565b610634565b6040516101ed9190611eeb565b60405180910390f35b610210600480360381019061020b9190611f32565b61067a565b005b61021a610791565b6040516102279190611f81565b60405180910390f35b610238610797565b6040516102459190611f81565b60405180910390f35b61026860048036038101906102639190611f9c565b61079d565b005b610284600480360381019061027f9190611e7d565b6107fd565b6040516102919190611d71565b60405180910390f35b6102b460048036038101906102af9190611fef565b61081d565b005b6102d060048036038101906102cb9190611f9c565b6108a6565b005b6102ec60048036038101906102e79190611e7d565b6108c6565b6040516102f99190611eeb565b60405180910390f35b61030a61094c565b6040516103179190611e25565b60405180910390f35b6103286109da565b6040516103359190611e25565b60405180910390f35b61035860048036038101906103539190611fef565b610a68565b6040516103659190611f81565b60405180910390f35b610376610b1f565b005b610380610b33565b60405161038d9190611f81565b60405180910390f35b61039e610b3d565b6040516103ab9190611eeb565b60405180910390f35b6103bc610b67565b6040516103c99190611e25565b60405180910390f35b6103ec60048036038101906103e79190612048565b610bf9565b005b6103f6610c0f565b60405161040391906120a7565b60405180910390f35b61042660048036038101906104219190611e7d565b610c25565b005b610442600480360381019061043d91906121f7565b610cb6565b005b61045e60048036038101906104599190611e7d565b610d18565b60405161046b9190611e25565b60405180910390f35b61048e6004803603810190610489919061227a565b610d4c565b60405161049b9190611d71565b60405180910390f35b6104be60048036038101906104b99190611fef565b610de0565b005b60007f80ac58cd000000000000000000000000000000000000000000000000000000007bffffffffffffffffffffffffffffffffffffffffffffffffffffffff1916827bffffffffffffffffffffffffffffffffffffffffffffffffffffffff1916148061058b57507f5b5e139f000000000000000000000000000000000000000000000000000000007bffffffffffffffffffffffffffffffffffffffffffffffffffffffff1916827bffffffffffffffffffffffffffffffffffffffffffffffffffffffff1916145b8061059b575061059a82610e63565b5b9050919050565b6060600080546105b1906122e9565b80601f01602080910402602001604051908101604052809291908181526020018280546105dd906122e9565b801561062a5780601f106105ff5761010080835404028352916020019161062a565b820191906000526020600020905b81548152906001019060200180831161060d57829003601f168201915b5050505050905090565b600061063f82610ecd565b6004600083815260200190815260200160002060009054906101000a900473ffffffffffffffffffffffffffffffffffffffff169050919050565b6000610685826108c6565b90508073ffffffffffffffffffffffffffffffffffffffff168373ffffffffffffffffffffffffffffffffffffffff16036106f5576040517f08c379a00000000000000000000000000000000000000000000000000000000081526004016106ec9061238c565b60405180910390fd5b8073ffffffffffffffffffffffffffffffffffffffff16610714610f18565b73ffffffffffffffffffffffffffffffffffffffff16148061074357506107428161073d610f18565b610d4c565b5b610782576040517f08c379a00000000000000000000000000000000000000000000000000000000081526004016107799061241e565b60405180910390fd5b61078c8383610f20565b505050565b60095481565b600b5481565b6107ae6107a8610f18565b82610fd9565b6107ed576040517f08c379a00000000000000000000000000000000000000000000000000000000081526004016107e4906124b0565b60405180910390fd5b6107f883838361106e565b505050565b600c6020528060005260406000206000915054906101000a900460ff1681565b610825611367565b42600860009054906101000a900463ffffffff1663ffffffff161161087f576040517f08c379a00000000000000000000000000000000000000000000000000000000081526004016108769061251c565b60405180910390fd5b61088b81600b546113e5565b600b600081548092919061089e9061256b565b919050555050565b6108c183838360405180602001604052806000815250610cb6565b505050565b6000806108d283611403565b9050600073ffffffffffffffffffffffffffffffffffffffff168173ffffffffffffffffffffffffffffffffffffffff1603610943576040517f08c379a000000000000000000000000000000000000000000000000000000000815260040161093a906125ff565b60405180910390fd5b80915050919050565b60078054610959906122e9565b80601f0160208091040260200160405190810160405280929190818152602001828054610985906122e9565b80156109d25780601f106109a7576101008083540402835291602001916109d2565b820191906000526020600020905b8154815290600101906020018083116109b557829003601f168201915b505050505081565b600a80546109e7906122e9565b80601f0160208091040260200160405190810160405280929190818152602001828054610a13906122e9565b8015610a605780601f10610a3557610100808354040283529160200191610a60565b820191906000526020600020905b815481529060010190602001808311610a4357829003601f168201915b505050505081565b60008073ffffffffffffffffffffffffffffffffffffffff168273ffffffffffffffffffffffffffffffffffffffff1603610ad8576040517f08c379a0000000000000000000000000000000000000000000000000000000008152600401610acf90612691565b60405180910390fd5b600360008373ffffffffffffffffffffffffffffffffffffffff1673ffffffffffffffffffffffffffffffffffffffff168152602001908152602001600020549050919050565b610b27611367565b610b316000611440565b565b6000600954905090565b6000600660009054906101000a900473ffffffffffffffffffffffffffffffffffffffff16905090565b606060018054610b76906122e9565b80601f0160208091040260200160405190810160405280929190818152602001828054610ba2906122e9565b8015610bef5780601f10610bc457610100808354040283529160200191610bef565b820191906000526020600020905b815481529060010190602001808311610bd257829003601f168201915b5050505050905090565b610c0b610c04610f18565b8383611506565b5050565b600860009054906101000a900463ffffffff1681565b610c2d611367565b42600860009054906101000a900463ffffffff1663ffffffff1611610c87576040517f08c379a0000000000000000000000000000000000000000000000000000000008152600401610c7e9061251c565b60405180910390fd5b6001600c600083815260200190815260200160002060006101000a81548160ff02191690831515021790555050565b610cc7610cc1610f18565b83610fd9565b610d06576040517f08c379a0000000000000000000000000000000000000000000000000000000008152600401610cfd906124b0565b60405180910390fd5b610d1284848484611672565b50505050565b6060610d23826108c6565b50600a604051602001610d369190612750565b6040516020818303038152906040529050919050565b6000600560008473ffffffffffffffffffffffffffffffffffffffff1673ffffffffffffffffffffffffffffffffffffffff16815260200190815260200160002060008373ffffffffffffffffffffffffffffffffffffffff1673ffffffffffffffffffffffffffffffffffffffff16815260200190815260200160002060009054906101000a900460ff16905092915050565b610de8611367565b600073ffffffffffffffffffffffffffffffffffffffff168173ffffffffffffffffffffffffffffffffffffffff1603610e57576040517f08c379a0000000000000000000000000000000000000000000000000000000008152600401610e4e906127d9565b60405180910390fd5b610e6081611440565b50565b60007f01ffc9a7000000000000000000000000000000000000000000000000000000007bffffffffffffffffffffffffffffffffffffffffffffffffffffffff1916827bffffffffffffffffffffffffffffffffffffffffffffffffffffffff1916149050919050565b610ed6816116ce565b610f15576040517f08c379a0000000000000000000000000000000000000000000000000000000008152600401610f0c906125ff565b60405180910390fd5b50565b600033905090565b816004600083815260200190815260200160002060006101000a81548173ffffffffffffffffffffffffffffffffffffffff021916908373ffffffffffffffffffffffffffffffffffffffff160217905550808273ffffffffffffffffffffffffffffffffffffffff16610f93836108c6565b73ffffffffffffffffffffffffffffffffffffffff167f8c5be1e5ebec7d5bd14f71427d1e84f3dd0314c0f7b2291e5b200ac8c7c3b92560405160405180910390a45050565b600080610fe5836108c6565b90508073ffffffffffffffffffffffffffffffffffffffff168473ffffffffffffffffffffffffffffffffffffffff16148061102757506110268185610d4c565b5b8061106557508373ffffffffffffffffffffffffffffffffffffffff1661104d84610634565b73ffffffffffffffffffffffffffffffffffffffff16145b91505092915050565b8273ffffffffffffffffffffffffffffffffffffffff1661108e826108c6565b73ffffffffffffffffffffffffffffffffffffffff16146110e4576040517f08c379a00000000000000000000000000000000000000000000000000000000081526004016110db9061286b565b60405180910390fd5b600073ffffffffffffffffffffffffffffffffffffffff168273ffffffffffffffffffffffffffffffffffffffff1603611153576040517f08c379a000000000000000000000000000000000000000000000000000000000815260040161114a906128fd565b60405180910390fd5b611160838383600161170f565b8273ffffffffffffffffffffffffffffffffffffffff16611180826108c6565b73ffffffffffffffffffffffffffffffffffffffff16146111d6576040517f08c379a00000000000000000000000000000000000000000000000000000000081526004016111cd9061286b565b60405180910390fd5b6004600082815260200190815260200160002060006101000a81549073ffffffffffffffffffffffffffffffffffffffff02191690556001600360008573ffffffffffffffffffffffffffffffffffffffff1673ffffffffffffffffffffffffffffffffffffffff168152602001908152602001600020600082825403925050819055506001600360008473ffffffffffffffffffffffffffffffffffffffff1673ffffffffffffffffffffffffffffffffffffffff16815260200190815260200160002060008282540192505081905550816002600083815260200190815260200160002060006101000a81548173ffffffffffffffffffffffffffffffffffffffff021916908373ffffffffffffffffffffffffffffffffffffffff160217905550808273ffffffffffffffffffffffffffffffffffffffff168473ffffffffffffffffffffffffffffffffffffffff167fddf252ad1be2c89b69c2b068fc378daa952ba7f163c4a11628f55a4df523b3ef60405160405180910390a46113628383836001611835565b505050565b61136f610f18565b73ffffffffffffffffffffffffffffffffffffffff1661138d610b3d565b73ffffffffffffffffffffffffffffffffffffffff16146113e3576040517f08c379a00000000000000000000000000000000000000000000000000000000081526004016113da90612969565b60405180910390fd5b565b6113ff82826040518060200160405280600081525061183b565b5050565b60006002600083815260200190815260200160002060009054906101000a900473ffffffffffffffffffffffffffffffffffffffff169050919050565b6000600660009054906101000a900473ffffffffffffffffffffffffffffffffffffffff16905081600660006101000a81548173ffffffffffffffffffffffffffffffffffffffff021916908373ffffffffffffffffffffffffffffffffffffffff1602179055508173ffffffffffffffffffffffffffffffffffffffff168173ffffffffffffffffffffffffffffffffffffffff167f8be0079c531659141344cd1fd0a4f28419497f9722a3daafe3b4186f6b6457e060405160405180910390a35050565b8173ffffffffffffffffffffffffffffffffffffffff168373ffffffffffffffffffffffffffffffffffffffff1603611574576040517f08c379a000000000000000000000000000000000000000000000000000000000815260040161156b906129d5565b60405180910390fd5b80600560008573ffffffffffffffffffffffffffffffffffffffff1673ffffffffffffffffffffffffffffffffffffffff16815260200190815260200160002060008473ffffffffffffffffffffffffffffffffffffffff1673ffffffffffffffffffffffffffffffffffffffff16815260200190815260200160002060006101000a81548160ff0219169083151502179055508173ffffffffffffffffffffffffffffffffffffffff168373ffffffffffffffffffffffffffffffffffffffff167f17307eab39ab6107e8899845ad3d59bd9653f200f220920489ca2b5937696c31836040516116659190611d71565b60405180910390a3505050565b61167d84848461106e565b61168984848484611896565b6116c8576040517f08c379a00000000000000000000000000000000000000000000000000000000081526004016116bf90612a67565b60405180910390fd5b50505050565b60008073ffffffffffffffffffffffffffffffffffffffff166116f083611403565b73ffffffffffffffffffffffffffffffffffffffff1614159050919050565b600181111561182f57600073ffffffffffffffffffffffffffffffffffffffff168473ffffffffffffffffffffffffffffffffffffffff16146117a35780600360008673ffffffffffffffffffffffffffffffffffffffff1673ffffffffffffffffffffffffffffffffffffffff168152602001908152602001600020600082825461179b9190612a87565b925050819055505b600073ffffffffffffffffffffffffffffffffffffffff168373ffffffffffffffffffffffffffffffffffffffff161461182e5780600360008573ffffffffffffffffffffffffffffffffffffffff1673ffffffffffffffffffffffffffffffffffffffff16815260200190815260200160002060008282546118269190612abb565b925050819055505b5b50505050565b50505050565b6118458383611a7d565b6118526000848484611896565b611891576040517f08c379a000000000000000000000000000000000000000000000000000000000815260040161188890612a67565b60405180910390fd5b505050565b60006118b78473ffffffffffffffffffffffffffffffffffffffff16611c9a565b15611a10578373ffffffffffffffffffffffffffffffffffffffff1663150b7a026118e0610f18565b8786866040518563ffffffff1660e01b81526004016119029493929190612b66565b6020604051808303816000875af192505050801561193e57506040513d601f19601f8201168201806040525081019061193b9190612bc7565b60015b6119c0573d806000811461196e576040519150601f19603f3d011682016040523d82523d6000602084013e611973565b606091505b5060008151036119b8576040517f08c379a00000000000000000000000000000000000000000000000000000000081526004016119af90612a67565b60405180910390fd5b805181602001fd5b63150b7a0260e01b7bffffffffffffffffffffffffffffffffffffffffffffffffffffffff1916817bffffffffffffffffffffffffffffffffffffffffffffffffffffffff191614915050611a15565b600190505b949350505050565b600115611a72578080600190039150507f3031323334353637383961626364656600000000000000000000000000000000600a86061a8153600a8581611a6657611a65612bf4565b5b04945060008503611a1d575b819350505050919050565b600073ffffffffffffffffffffffffffffffffffffffff168273ffffffffffffffffffffffffffffffffffffffff1603611aec576040517f08c379a0000000000000000000000000000000000000000000000000000000008152600401611ae390612c6f565b60405180910390fd5b611af5816116ce565b15611b35576040517f08c379a0000000000000000000000000000000000000000000000000000000008152600401611b2c90612cdb565b60405180910390fd5b611b4360008383600161170f565b611b4c816116ce565b15611b8c576040517f08c379a0000000000000000000000000000000000000000000000000000000008152600401611b8390612cdb565b60405180910390fd5b6001600360008473ffffffffffffffffffffffffffffffffffffffff1673ffffffffffffffffffffffffffffffffffffffff16815260200190815260200160002060008282540192505081905550816002600083815260200190815260200160002060006101000a81548173ffffffffffffffffffffffffffffffffffffffff021916908373ffffffffffffffffffffffffffffffffffffffff160217905550808273ffffffffffffffffffffffffffffffffffffffff16600073ffffffffffffffffffffffffffffffffffffffff167fddf252ad1be2c89b69c2b068fc378daa952ba7f163c4a11628f55a4df523b3ef60405160405180910390a4611c96600083836001611835565b5050565b6000808273ffffffffffffffffffffffffffffffffffffffff163b119050919050565b6000604051905090565b600080fd5b600080fd5b60007fffffffff0000000000000000000000000000000000000000000000000000000082169050919050565b611d0681611cd1565b8114611d1157600080fd5b50565b600081359050611d2381611cfd565b92915050565b600060208284031215611d3f57611d3e611cc7565b5b6000611d4d84828501611d14565b91505092915050565b60008115159050919050565b611d6b81611d56565b82525050565b6000602082019050611d866000830184611d62565b92915050565b600081519050919050565b600082825260208201905092915050565b60005b83811015611dc6578082015181840152602081019050611dab565b83811115611dd5576000848401525b50505050565b6000601f19601f8301169050919050565b6000611df782611d8c565b611e018185611d97565b9350611e11818560208601611da8565b611e1a81611ddb565b840191505092915050565b60006020820190508181036000830152611e3f8184611dec565b905092915050565b6000819050919050565b611e5a81611e47565b8114611e6557600080fd5b50565b600081359050611e7781611e51565b92915050565b600060208284031215611e9357611e92611cc7565b5b6000611ea184828501611e68565b91505092915050565b600073ffffffffffffffffffffffffffffffffffffffff82169050919050565b6000611ed582611eaa565b9050919050565b611ee581611eca565b82525050565b6000602082019050611f006000830184611edc565b92915050565b611f0f81611eca565b8114611f1a57600080fd5b50565b600081359050611f2c81611f06565b92915050565b60008060408385031215611f4957611f48611cc7565b5b6000611f5785828601611f1d565b9250506020611f6885828601611e68565b9150509250929050565b611f7b81611e47565b82525050565b6000602082019050611f966000830184611f72565b92915050565b600080600060608486031215611fb557611fb4611cc7565b5b6000611fc386828701611f1d565b9350506020611fd486828701611f1d565b9250506040611fe586828701611e68565b9150509250925092565b60006020828403121561200557612004611cc7565b5b600061201384828501611f1d565b91505092915050565b61202581611d56565b811461203057600080fd5b50565b6000813590506120428161201c565b92915050565b6000806040838503121561205f5761205e611cc7565b5b600061206d85828601611f1d565b925050602061207e85828601612033565b9150509250929050565b600063ffffffff82169050919050565b6120a181612088565b82525050565b60006020820190506120bc6000830184612098565b92915050565b600080fd5b600080fd5b7f4e487b7100000000000000000000000000000000000000000000000000000000600052604160045260246000fd5b61210482611ddb565b810181811067ffffffffffffffff82111715612123576121226120cc565b5b80604052505050565b6000612136611cbd565b905061214282826120fb565b919050565b600067ffffffffffffffff821115612162576121616120cc565b5b61216b82611ddb565b9050602081019050919050565b82818337600083830152505050565b600061219a61219584612147565b61212c565b9050828152602081018484840111156121b6576121b56120c7565b5b6121c1848285612178565b509392505050565b600082601f8301126121de576121dd6120c2565b5b81356121ee848260208601612187565b91505092915050565b6000806000806080858703121561221157612210611cc7565b5b600061221f87828801611f1d565b945050602061223087828801611f1d565b935050604061224187828801611e68565b925050606085013567ffffffffffffffff81111561226257612261611ccc565b5b61226e878288016121c9565b91505092959194509250565b6000806040838503121561229157612290611cc7565b5b600061229f85828601611f1d565b92505060206122b085828601611f1d565b9150509250929050565b7f4e487b7100000000000000000000000000000000000000000000000000000000600052602260045260246000fd5b6000600282049050600182168061230157607f821691505b602082108103612314576123136122ba565b5b50919050565b7f4552433732313a20617070726f76616c20746f2063757272656e74206f776e6560008201527f7200000000000000000000000000000000000000000000000000000000000000602082015250565b6000612376602183611d97565b91506123818261231a565b604082019050919050565b600060208201905081810360008301526123a581612369565b9050919050565b7f4552433732313a20617070726f76652063616c6c6572206973206e6f7420746f60008201527f6b656e206f776e6572206f7220617070726f76656420666f7220616c6c000000602082015250565b6000612408603d83611d97565b9150612413826123ac565b604082019050919050565b60006020820190508181036000830152612437816123fb565b9050919050565b7f4552433732313a2063616c6c6572206973206e6f7420746f6b656e206f776e6560008201527f72206f7220617070726f76656400000000000000000000000000000000000000602082015250565b600061249a602d83611d97565b91506124a58261243e565b604082019050919050565b600060208201905081810360008301526124c98161248d565b9050919050565b7f5469636b6574206973206e6f742076616c696400000000000000000000000000600082015250565b6000612506601383611d97565b9150612511826124d0565b602082019050919050565b60006020820190508181036000830152612535816124f9565b9050919050565b7f4e487b7100000000000000000000000000000000000000000000000000000000600052601160045260246000fd5b600061257682611e47565b91507fffffffffffffffffffffffffffffffffffffffffffffffffffffffffffffffff82036125a8576125a761253c565b5b600182019050919050565b7f4552433732313a20696e76616c696420746f6b656e2049440000000000000000600082015250565b60006125e9601883611d97565b91506125f4826125b3565b602082019050919050565b60006020820190508181036000830152612618816125dc565b9050919050565b7f4552433732313a2061646472657373207a65726f206973206e6f74206120766160008201527f6c6964206f776e65720000000000000000000000000000000000000000000000602082015250565b600061267b602983611d97565b91506126868261261f565b604082019050919050565b600060208201905081810360008301526126aa8161266e565b9050919050565b600081905092915050565b60008190508160005260206000209050919050565b600081546126de816122e9565b6126e881866126b1565b94506001821660008114612703576001811461271457612747565b60ff19831686528186019350612747565b61271d856126bc565b60005b8381101561273f57815481890152600182019150602081019050612720565b838801955050505b50505092915050565b600061275c82846126d1565b915081905092915050565b7f4f776e61626c653a206e6577206f776e657220697320746865207a65726f206160008201527f6464726573730000000000000000000000000000000000000000000000000000602082015250565b60006127c3602683611d97565b91506127ce82612767565b604082019050919050565b600060208201905081810360008301526127f2816127b6565b9050919050565b7f4552433732313a207472616e736665722066726f6d20696e636f72726563742060008201527f6f776e6572000000000000000000000000000000000000000000000000000000602082015250565b6000612855602583611d97565b9150612860826127f9565b604082019050919050565b6000602082019050818103600083015261288481612848565b9050919050565b7f4552433732313a207472616e7366657220746f20746865207a65726f2061646460008201527f7265737300000000000000000000000000000000000000000000000000000000602082015250565b60006128e7602483611d97565b91506128f28261288b565b604082019050919050565b60006020820190508181036000830152612916816128da565b9050919050565b7f4f776e61626c653a2063616c6c6572206973206e6f7420746865206f776e6572600082015250565b6000612953602083611d97565b915061295e8261291d565b602082019050919050565b6000602082019050818103600083015261298281612946565b9050919050565b7f4552433732313a20617070726f766520746f2063616c6c657200000000000000600082015250565b60006129bf601983611d97565b91506129ca82612989565b602082019050919050565b600060208201905081810360008301526129ee816129b2565b9050919050565b7f4552433732313a207472616e7366657220746f206e6f6e20455243373231526560008201527f63656976657220696d706c656d656e7465720000000000000000000000000000602082015250565b6000612a51603283611d97565b9150612a5c826129f5565b604082019050919050565b60006020820190508181036000830152612a8081612a44565b9050919050565b6000612a9282611e47565b9150612a9d83611e47565b925082821015612ab057612aaf61253c565b5b828203905092915050565b6000612ac682611e47565b9150612ad183611e47565b9250827fffffffffffffffffffffffffffffffffffffffffffffffffffffffffffffffff03821115612b0657612b0561253c565b5b828201905092915050565b600081519050919050565b600082825260208201905092915050565b6000612b3882612b11565b612b428185612b1c565b9350612b52818560208601611da8565b612b5b81611ddb565b840191505092915050565b6000608082019050612b7b6000830187611edc565b612b886020830186611edc565b612b956040830185611f72565b8181036060830152612ba78184612b2d565b905095945050505050565b600081519050612bc181611cfd565b92915050565b600060208284031215612bdd57612bdc611cc7565b5b6000612beb84828501612bb2565b91505092915050565b7f4e487b7100000000000000000000000000000000000000000000000000000000600052601260045260246000fd5b7f4552433732313a206d696e7420746f20746865207a65726f2061646472657373600082015250565b6000612c59602083611d97565b9150612c6482612c23565b602082019050919050565b60006020820190508181036000830152612c8881612c4c565b9050919050565b7f4552433732313a20746f6b656e20616c7265616479206d696e74656400000000600082015250565b6000612cc5601c83611d97565b9150612cd082612c8f565b602082019050919050565b60006020820190508181036000830152612cf481612cb8565b905091905056fea2646970667358221220423242d5ebf489ca043ed9d503616dd74af549dd87e4c94cb00b02ff8bd9b7bd64736f6c634300080e0033a26469706673582212206af947f25dd5562305fd6d944e522cdff1888503501d6856cb18113adf1f685164736f6c634300080e0033",
  "linkReferences": {},
  "deployedLinkReferences": {}
}